:100000000C9466000C948E000C948E000C944C039F
:100010000C944C030C944C030C948E000C948E00A6
:100020000C948E000C948E000C948E000C948E0018
:100030000C948E000C948E000C948E000C948E0008
:100040000C941C040C948E000C94EA030C94C403CE
:100050000C948E000C948E000C948E000C948E00E8
:100060000C948E000C948E003E003C240000000096
:1000700000240027002A0000000008000201000000
:10008000030407000000000000000000000000233F
:10009000002600290000000000250028002B000495
:1000A000040404040404040202020202020303031F
:1000B0000303030102040810204080010204081019
:1000C000200102040810200066041E0711241FBE30
:1000D000CFEFD8E0DEBFCDBF11E0A0E0B1E0E4E3B8
:1000E000FFE002C005900D92A833B107D9F722E0D6
:1000F000A8E3B1E001C01D92A83DB207E1F710E00E
:10010000C5E6D0E004C02197FE010E948707C436EF
:10011000D107C9F70E9411050C943A070C9400000E
:1001200020911A0230911B022817390771F490911F
:10013000190280911802981741F0E0911902F0E03D
:10014000E852FE4F808190E008958FEF9FEF089571
:100150000895EF92FF920F931F93CF93DF93DC01EB
:100160005C96ED90FC905D97E114F10479F481E0E8
:1001700090E013969C938E93129790E080E0DF912D
:10018000CF911F910F91FF90EF9008955196ED91AF
:10019000FC91529750968C915097982F90950FB74D
:1001A0005E962C915E97122F127021FD6095F89447
:1001B0002081112319F1282B2083E7012197F1F7E2
:1001C00028E0462F50E0308160FF1AC0382B308382
:1001D000E7012197F1F7BA0175956795215089F7E5
:1001E000112381F08081892380830FBF5C968D91DC
:1001F0009C910197F1F781E090E0C1CF2923DCCFFA
:100200003923E5CF9081892BEFCF20911A023091CD
:100210001B022817390771F48091180220911902E6
:1002200090E0805C9F4F821B910960E470E00E9427
:100230003D07089590E080E0089520911A023091E2
:100240001B0228173907B9F49091190280911802FE
:10025000981789F0E0911902F0E0E852FE4F808192
:100260002091190230E02F5F3F4F2F7333272093E7
:10027000190290E008958FEF9FEF0895AF92BF921B
:10028000CF92DF92EF92FF920F931F93CF93DF9362
:100290006C017B018B01040F151FEB015E01AE1891
:1002A000BF08C017D10759F06991D601ED91FC91B3
:1002B0000190F081E02DC6010995892B79F7C501E0
:1002C000DF91CF911F910F91FF90EF90DF90CF9032
:1002D000BF90AF90089590E080E00895FC01538DA9
:1002E000448D252F30E0842F90E0821B930B541710
:1002F00010F0CF96089501970895FC01918D828D9D
:10030000981761F0A28DAE0FBF2FB11D5D968C9135
:10031000928D9F5F9F73928F90E008958FEF9FEF74
:100320000895FC01918D828D981731F0828DE80F30
:10033000F11D858D90E008958FEF9FEF0895FC01EA
:10034000918D228D892F90E0805C9F4F821B9109B7
:100350008F7399270895FC01A48DA80FB92FB11DA3
:10036000A35ABF4F2C91848D90E001968F739927EB
:10037000848FA689B7892C93A089B1898C918370C9
:1003800080648C93938D848D981306C00288F389C2
:10039000E02D80818F7D80830895EF92FF920F93EF
:1003A0001F93CF93DF93EC0181E0888F9B8D8C8D21
:1003B00098131AC0E889F989808185FF15C09FB715
:1003C000F894EE89FF896083E889F98980818370D8
:1003D000806480839FBF81E090E0DF91CF911F9187
:1003E0000F91FF90EF900895F62E0B8D10E00F5FA8
:1003F0001F4F0F731127E02E8C8D8E110CC00FB67E
:1004000007FCFACFE889F989808185FFF5CFCE0115
:100410000E94AB01F1CFEB8DEC0FFD2FF11DE35AE4
:10042000FF4FF0829FB7F8940B8FEA89FB89808198
:100430008062CFCF0F931F93CF93DF938C01D0E0D7
:10044000C0E0F801EC0FFD1F6491662341F08CE1E0
:1004500092E00E94CD01892B11F02196F2CFCE01BE
:10046000DF91CF911F910F910895CF93DF93EC010E
:10047000888D8823B9F0AA89BB89E889F9898C918C
:1004800085FD03C0808186FD0DC00FB607FCF7CF48
:100490008C9185FFF2CF808185FFEDCFCE010E9448
:1004A000AB01E9CFDF91CF91089590E0FC01E958CD
:1004B000FF4F2491FC01ED54FF4F3491FC01E156B4
:1004C000FF4FE491EE23C9F0222339F0233001F1EC
:1004D000A8F4213019F1223029F1F0E0EE0FFF1FCE
:1004E000EB56FF4FA591B4918FB7F894EC91611141
:1004F00026C030953E233C938FBF08952730A9F046
:100500002830C9F0243049F7809180008F7D03C0E6
:10051000809180008F7780938000DFCF84B58F77C4
:1005200084BDDBCF84B58F7DFBCF8091B0008F770A
:100530008093B000D2CF8091B0008F7DF9CF3E2B59
:10054000DACFCF93DF9390E0FC01ED54FF4F24917D
:1005500081569F4FFC0184918823D1F090E0880F51
:10056000991FFC01E359FF4FA591B491FC01EB5693
:10057000FF4FC591D49161110EC09FB7F8948C9133
:10058000E22FE0958E238C932881E223E8839FBF9E
:10059000DF91CF9108958FB7F894EC91E22BEC9313
:1005A0008FBFF6CF3FB7F8948091D4019091D501D9
:1005B000A091D601B091D70126B5A89B05C02F3FC9
:1005C00019F00196A11DB11D3FBFBA2FA92F982F79
:1005D0008827BC01CD01620F711D811D911D42E074
:1005E000660F771F881F991F4A95D1F708958F923C
:1005F0009F92AF92BF92CF92DF92EF92FF926B01E8
:100600007C010E94D2024B015C01C114D104E104BF
:10061000F104B9F00E94D202681979098A099B098C
:10062000683E73408105910580F321E0C21AD1082C
:10063000E108F10888EE880E83E0981EA11CB11C29
:10064000E4CFFF90EF90DF90CF90BF90AF909F905E
:100650008F900895FB0101900020E9F73197AF01D9
:10066000461B570BDC01ED91FC910280F381E02DDC
:100670000994CF93DF93BC018CE192E00E942A039E
:10068000EC0164E271E08CE192E00E942A038C0F9D
:100690009D1FDF91CF9108951F920F920FB60F9279
:1006A00011242F933F934F935F936F937F938F9377
:1006B0009F93AF93BF93EF93FF93E0911A02F09152
:1006C0001B02309749F0A685B7858585968D91FFE9
:1006D00014C09C918923A1F4FF91EF91BF91AF9138
:1006E0009F918F917F916F915F914F913F912F914A
:1006F0000F900FBE0F901F9018959C91892361F762
:10070000A389B4899C918589809589238C93868956
:1007100097890197F1F7608D718DA685B78555850D
:1007200038E020E0CB010197F1F7822F90E095951A
:100730008795282F4C91452309F02068315091F777
:10074000868D81FD20958091180290E001968F732F
:10075000992730911902381799F0A0911802B0E04A
:10076000A852BE4F2C9380931802828D938D0197CF
:10077000F1F7A389B4898C919589892B8C93ACCF9F
:10078000868D8160868FF1CF1F920F920FB60F92E8
:1007900011242F933F934F935F936F937F938F9386
:1007A0009F93AF93BF93EF93FF938CE192E00E94EE
:1007B000AB01FF91EF91BF91AF919F918F917F918D
:1007C0006F915F914F913F912F910F900FBE0F90BE
:1007D0001F9018951F920F920FB60F9211242F930E
:1007E0008F939F93EF93FF93E0912C02F0912D0252
:1007F0008081E0913202F091330282FD1BC0908132
:10080000809135028F5F8F7320913602821741F0FD
:10081000E0913502F0E0E45EFD4F958F8093350264
:10082000FF91EF919F918F912F910F900FBE0F909D
:100830001F9018958081F4CF1F920F920FB60F92E0
:1008400011242F933F938F939F93AF93BF938091E6
:10085000D0019091D101A091D201B091D3013091FA
:10086000CF0123E0230F2D3758F50196A11DB11DAF
:100870002093CF018093D0019093D101A093D20116
:10088000B093D3018091D4019091D501A091D6016C
:10089000B091D7010196A11DB11D8093D401909311
:1008A000D501A093D601B093D701BF91AF919F918D
:1008B0008F913F912F910F900FBE0F901F90189521
:1008C00026E8230F0296A11DB11DD2CF10921F0260
:1008D00010921E0288EE93E0A0E0B0E08093200228
:1008E00090932102A0932202B093230224E031E0EE
:1008F00030931D0220931C0225EC30E03093290236
:100900002093280224EC30E030932B0220932A021B
:1009100020EC30E030932D0220932C0221EC30E0CB
:1009200030932F0220932E0222EC30E030933102DC
:100930002093300226EC30E03093330220933202D1
:10094000109235021092360210923702109238023D
:100950001092BC021092BB028093BD029093BE0223
:10096000A093BF02B093C00286E191E09093BA02D7
:100970008093B9021092D0021092CF021092D2024C
:100980001092D1021092D4021092D3021092D60289
:100990001092D5026091D7026E7F6D7F6093D7026F
:1009A0006695617081E0682788E00E94550261E0E9
:1009B00088E00E94A102EBEBF0E0E491E093C90231
:1009C000E7EAF0E0E491F0E0EE0FFF1FEB56FF4F97
:1009D000859194919093CB028093CA0260E087E066
:1009E0000E94A1028091D70281FD04C061E087E0EE
:1009F0000E94550287E08093C502EAEBF0E0E491A3
:100A0000E093C602E6EAF0E0E491F0E0EE0FFF1FAB
:100A1000E557FF4F859194919093C8028093C70248
:100A200008958F929F92AF92BF92CF92DF92EF92F2
:100A3000FF920F931F93CF93DF93CDB7DEB7A197AC
:100A40000FB6F894DEBF0FBECDBF789484B5826038
:100A500084BD84B5816084BD85B5826085BD85B562
:100A6000816085BD80916E00816080936E001092E0
:100A7000810080918100826080938100809181005B
:100A800081608093810080918000816080938000EC
:100A90008091B10084608093B1008091B00081604A
:100AA0008093B00080917A00846080937A00809176
:100AB0007A00826080937A0080917A0081608093CE
:100AC0007A0080917A00806880937A001092C10049
:100AD0001092D4021092D3021092D2021092D1023C
:100AE0001092D0021092CF028DEC90E09093D6023B
:100AF0008093D5029091C502963108F047C025E554
:100B000030E03093D0022093CF022BEC30E03093D2
:100B1000D2022093D10220E930E03093D402209316
:100B2000D3022091680084E0983048F031E09E3094
:100B300008F430E081E001C0880F3A95EAF7822B93
:100B4000809368002DE630E0983050F02BE630E0DE
:100B50009E3030F02CE630E0963110F030E020E0AE
:100B60003093CD022093CC02292F30E0983008F04A
:100B7000BFC081E001C0880F9A95EAF78093CE024A
:100B80008091D5029091D6020197F1F78091D3021E
:100B90009091D402892B49F1E0911A02F0911B0245
:100BA00082E0E93BF80709F1309739F0A389B4896D
:100BB0009C918589809589238C938091D7028E7F23
:100BC0008093D702109218021092190289EB92E0DA
:100BD00090931B0280931A02E091CC02F091CD0217
:100BE00080819091CE02892B8083E0912C02F0913C
:100BF0002D0282E08083E0912802F0912902108288
:100C0000E0912A02F0912B0287E680831092340251
:100C1000E0913002F091310286E08083E0912E0273
:100C2000F0912F02808180618083E0912E02F0910B
:100C30002F02808188608083E0912E02F0912F0244
:100C4000808180688083E0912E02F0912F02808164
:100C50008F7D808361E085E00E94A10261E089E0F0
:100C60000E94A10261E083E00E94A10205E010E081
:100C700061E085E00E94550266E970E080E090E066
:100C80000E94F70260E085E00E94550266E970E08C
:100C900080E090E00E94F7020150110949F787E2D5
:100CA00091E00E9439032DE9C22E21E0D22E8FEC73
:100CB00091E07601F70111927F018E179F07D1F71E
:100CC00098E3A92E91E0B92E8501F80111928F01C8
:100CD000F1E00C391F07C9F789EB92E00E9405018A
:100CE0001816190694F489EB92E00E941D01F4CFC6
:100CF0009E3040F42850310981E001C0880F2A95C8
:100D0000EAF73CCF2E503109F7CF69E271E089EB69
:100D100092E00E942A0362E370E080E090E00E948B
:100D2000F70289EB92E00E940501892B79F00A1500
:100D30001B0561F089EB92E00E941D0190EE980F77
:100D40009B3578F7F50181935F01EBCF10919C0102
:100D5000116010939C018AE690E00E941A02212FF4
:100D600030E050E040E019A28E010F5D1F4F8AE095
:100D7000882E912CA12CB12CCA01B901A501940196
:100D80000E945107605DF80162938F0121153105C2
:100D90004105510589F7309729F0BF018CE192E0B8
:100DA0000E942A0388E690E00E941A0264E271E041
:100DB0008CE192E00E942A038CE192E00E949F0164
:100DC000892B09F10DE911E08CE192E00E949F016D
:100DD0001816190654F48CE192E00E947D01F80186
:100DE00081938F01EE16FF0679F78DE291E00E9464
:100DF00039038DE991E00E943903F60111926F01E8
:100E0000EE15FF05D1F764E670E080E090E00E9407
:100E1000F70290E080E0A1960FB6F894DEBF0FBE17
:100E2000CDBFDF91CF911F910F91FF90EF90DF9099
:100E3000CF90BF90AF909F908F90089586E191E002
:100E40009093BA028093B90280911A0290911B028A
:100E5000895B924071F4E091CC02F091CD029081D7
:100E60008091CE0280958923808310921B0210927C
:100E70001A020895F8940C948D0797FB072E16F428
:100E8000009407D077FD09D00E94730707FC05D0B6
:100E90003EF4909581959F4F0895709561957F4F91
:100EA0000895A1E21A2EAA1BBB1BFD010DC0AA1FAB
:100EB000BB1FEE1FFF1FA217B307E407F50720F0C3
:100EC000A21BB30BE40BF50B661F771F881F991F3E
:100ED0001A9469F760957095809590959B01AC0187
:100EE000BD01CF010895AA1BBB1B51E107C0AA1F7A
:100EF000BB1FA617B70710F0A61BB70B881F991FBB
:100F00005A95A9F780959095BC01CD010895EE0FF3
:100F1000FF1F0590F491E02D099410E0C5E6D0E0A4
:100F200004C0FE010E9487072196C636D107C9F783
:040F3000F894FFCF63
:100F340000000000CD013E016E0135029F017D01DC
:100F4400910100000000A9003E016B01A800050109
:100F54001D0190000D0A00310041540D00446174DC
:080F6400612072656164210047
:00000001FF
