:100000000C9463000C948B000C948B000C942803CC
:100010000C9428030C9428030C948B000C948B00F4
:100020000C948B000C948B000C948B000C948B0024
:100030000C948B000C948B000C948B000C948B0014
:100040000C94F8030C948B000C94C6030C94A0033E
:100050000C948B000C948B000C948B000C948B00F4
:100060000C948B000C948B000000000024002700EF
:100070002A0000000008000201000003040700003D
:1000800000000000000000000000230026002900FE
:1000900000000000250028002B00040404040404D0
:1000A0000404020202020202030303030303010227
:1000B00004081020408001020408102001020408F6
:1000C00010204204C20511241FBECFEFD8E0DEBFCE
:1000D000CDBF11E0A0E0B1E0E8E3FCE002C0059094
:1000E0000D92A433B107D9F722E0A4E3B1E001C037
:1000F0001D92AF36B207E1F710E0C2E6D0E004C0CF
:100100002197FE010E940906C136D107C9F70E9456
:10011000ED040C94DE050C9400002091B1013091A7
:10012000B2012817390771F49091B0018091AF01A5
:10013000981741F0E091B001F0E0E159FE4F808165
:1001400090E008958FEF9FEF08950895EF92FF924A
:100150000F931F93CF93DF93DC015C96ED90FC909F
:100160005D97E114F10479F481E090E013969C939B
:100170008E93129790E080E0DF91CF911F910F91C5
:10018000FF90EF9008955196ED91FC915297509603
:100190008C915097982F90950FB75E962C915E9703
:1001A000122F127021FD6095F8942081112319F10E
:1001B000282B2083E7012197F1F728E0462F50E014
:1001C000308160FF1AC0382B3083E7012197F1F7A7
:1001D000BA0175956795215089F7112381F08081C7
:1001E000892380830FBF5C968D919C910197F1F7D5
:1001F00081E090E0C1CF2923DCCF3923E5CF908186
:10020000892BEFCF2091B1013091B2012817390726
:1002100071F48091AF012091B00190E0805C9F4F1C
:10022000821B910960E470E00E94E105089590E06E
:1002300080E008952091B1013091B201281739076B
:10024000B9F49091B0018091AF01981789F0E091D5
:10025000B001F0E0E159FE4F80812091B00130E023
:100260002F5F3F4F2F7333272093B00190E0089505
:100270008FEF9FEF0895AF92BF92CF92DF92EF92F0
:10028000FF920F931F93CF93DF936C017B018B0140
:10029000040F151FEB015E01AE18BF08C017D10790
:1002A00059F06991D601ED91FC910190F081E02D1A
:1002B000C6010995892B79F7C501DF91CF911F916F
:1002C0000F91FF90EF90DF90CF90BF90AF90089587
:1002D00090E080E00895FC01538D448D252F30E09F
:1002E000842F90E0821B930B541710F0CF96089543
:1002F00001970895FC01918D828D981761F0A28D70
:10030000AE0FBF2FB11D5D968C91928D9F5F9F7335
:10031000928F90E008958FEF9FEF0895FC01918DEB
:10032000828D981731F0828DE80FF11D858D90E058
:1003300008958FEF9FEF0895FC01918D228D892FF5
:1003400090E0805C9F4F821B91098F7399270895DD
:10035000FC01A48DA80FB92FB11DA35ABF4F2C913A
:10036000848D90E001968F739927848FA689B78931
:100370002C93A089B1898C91837080648C93938D28
:10038000848D981306C00288F389E02D80818F7DCB
:1003900080830895EF92FF920F931F93CF93DF9383
:1003A000EC0181E0888F9B8D8C8D98131AC0E889B1
:1003B000F989808185FF15C09FB7F894EE89FF8980
:1003C0006083E889F98980818370806480839FBF1E
:1003D00081E090E0DF91CF911F910F91FF90EF901E
:1003E0000895F62E0B8D10E00F5F1F4F0F7311272E
:1003F000E02E8C8D8E110CC00FB607FCFACFE88969
:10040000F989808185FFF5CFCE010E94A801F1CF47
:10041000EB8DEC0FFD2FF11DE35AFF4FF0829FB7DC
:10042000F8940B8FEA89FB8980818062CFCFCF93CC
:10043000DF93EC01888D8823B9F0AA89BB89E8890C
:10044000F9898C9185FD03C0808186FD0DC00FB6B2
:1004500007FCF7CF8C9185FFF2CF808185FFEDCF30
:10046000CE010E94A801E9CFDF91CF91089590E0DD
:10047000FC01EE58FF4F2491FC01E255FF4F3491EF
:10048000FC01E656FF4FE491EE23C9F0222339F038
:10049000233001F1A8F4213019F1223029F1F0E0E4
:1004A000EE0FFF1FE057FF4FA591B4918FB7F8945F
:1004B000EC91611126C030953E233C938FBF089587
:1004C0002730A9F02830C9F0243049F78091800006
:1004D0008F7D03C0809180008F7780938000DFCF75
:1004E00084B58F7784BDDBCF84B58F7DFBCF8091C2
:1004F000B0008F778093B000D2CF8091B0008F7D15
:10050000F9CF3E2BDACFCF93DF9390E0FC01E25599
:10051000FF4F249186569F4FFC0184918823D1F090
:1005200090E0880F991FFC01E859FF4FA591B49105
:10053000FC01E057FF4FC591D49161110EC09FB7E8
:10054000F8948C91E22FE0958E238C932881E223FE
:10055000E8839FBFDF91CF9108958FB7F894EC9116
:10056000E22BEC938FBFF6CF3FB7F89480916B01ED
:1005700090916C01A0916D01B0916E0126B5A89B80
:1005800005C02F3F19F00196A11DB11D3FBFBA2F25
:10059000A92F982F8827BC01CD01620F711D811DE5
:1005A000911D42E0660F771F881F991F4A95D1F76A
:1005B00008958F929F92AF92BF92CF92DF92EF9267
:1005C000FF924B015C010E94B4026B017C010E940E
:1005D000B4026C197D098E099F09683E734081053C
:1005E0009105A8F321E0821A9108A108B10888EECC
:1005F000C80E83E0D81EE11CF11C81149104A104F3
:10060000B10429F7FF90EF90DF90CF90BF90AF90AB
:100610009F908F900895CF93DF93FC01019000206D
:10062000E9F73197AF01481B590BBC0183EB91E00F
:100630000E943B01EC0142E050E064E271E083EB98
:1006400091E00E943B018C0F9D1FDF91CF91089597
:100650001F920F920FB60F9211242F933F934F9337
:100660005F936F937F938F939F93AF93BF93EF931A
:10067000FF93E091B101F091B201309749F0A68566
:10068000B7858585968D91FF14C09C918923A1F42F
:10069000FF91EF91BF91AF919F918F917F916F915A
:1006A0005F914F913F912F910F900FBE0F901F9030
:1006B00018959C91892361F7A389B4899C918589B8
:1006C000809589238C93868997890197F1F7608DAE
:1006D000718DA685B785558538E020E0CB0101975F
:1006E000F1F7822F90E095958795282F4C9145231F
:1006F00009F02068315091F7868D81FD2095809119
:10070000AF0190E001968F7399273091B0013817AF
:1007100099F0A091AF01B0E0A159BE4F2C93809306
:10072000AF01828D938D0197F1F7A389B4898C91E4
:100730009589892B8C93ACCF868D8160868FF1CF84
:100740001F920F920FB60F9211242F933F934F9346
:100750005F936F937F938F939F93AF93BF93EF9329
:10076000FF9383EB91E00E94A801FF91EF91BF916D
:10077000AF919F918F917F916F915F914F913F9139
:100780002F910F900FBE0F901F9018951F920F92F0
:100790000FB60F9211242F938F939F93EF93FF9394
:1007A000E091C301F091C4018081E091C901F09111
:1007B000CA0182FD1BC090818091CC018F5F8F7335
:1007C0002091CD01821741F0E091CC01F0E0ED5491
:1007D000FE4F958F8093CC01FF91EF919F918F9168
:1007E0002F910F900FBE0F901F9018958081F4CF1E
:1007F0001F920F920FB60F9211242F933F938F9356
:100800009F93AF93BF938091670190916801A091EE
:100810006901B0916A013091660123E0230F2D3701
:1008200058F50196A11DB11D2093660180936701C3
:1008300090936801A0936901B0936A0180916B0164
:1008400090916C01A0916D01B0916E010196A11D76
:10085000B11D80936B0190936C01A0936D01B093D7
:100860006E01BF91AF919F918F913F912F910F900A
:100870000FBE0F901F90189526E8230F0296A11D1A
:10088000B11DD2CF1092B6011092B50188EE93E05F
:10089000A0E0B0E08093B7019093B801A093B901B4
:1008A000B093BA0124E031E03093B4012093B30156
:1008B00025EC30E03093C0012093BF0124EC30E000
:1008C0003093C2012093C10120EC30E03093C40189
:1008D0002093C30121EC30E03093C6012093C50181
:1008E00022EC30E03093C8012093C70126EC30E0C1
:1008F0003093CA012093C9011092CC011092CD010E
:100900001092CE011092CF01109253021092520217
:100910008093540290935502A0935602B0935702CD
:1009200086E191E090935102809350021092670209
:1009300010926602109269021092680210926B0285
:1009400010926A0210926D0210926C0260916E0217
:100950006E7F6D7F60936E026695617081E068279F
:1009600087E00E94370261E087E00E948302E5EBA6
:10097000F0E0E491E0936002E1EAF0E0E491F0E07D
:10098000EE0FFF1FE057FF4F859194919093620205
:100990008093610260E088E00E94830280916E0291
:1009A00081FD04C061E088E00E94370288E0809306
:1009B0005C02E6EBF0E0E491E0935D02E2EAF0E055
:1009C000E491F0E0EE0FFF1FEA57FF4F85919491FD
:1009D00090935F0280935E020895789484B582605C
:1009E00084BD84B5816084BD85B5826085BD85B5D3
:1009F000816085BD80916E00816080936E00109251
:100A000081008091810082608093810080918100CB
:100A1000816080938100809180008160809380005C
:100A20008091B10084608093B1008091B0008160BA
:100A30008093B00080917A00846080937A008091E6
:100A40007A00826080937A0080917A00816080933E
:100A50007A0080917A00806880937A001092C100B9
:100A6000E091C301F091C40182E08083E091BF0175
:100A7000F091C0011082E091C101F091C2018FECB0
:100A800080831092CB01E091C701F091C80186E00C
:100A90008083E091C501F091C601808180618083EF
:100AA000E091C501F091C601808188608083E0916A
:100AB000C501F091C601808180688083E091C50105
:100AC000F091C60180818F7D808361E085E00E9486
:100AD000830261E089E00E94830261E083E00E947A
:100AE0008302C5E0D0E061E085E00E94370266E95C
:100AF00070E080E090E00E94D90260E085E00E9412
:100B0000370266E970E080E090E00E94D902219708
:100B100051F787E291E00E940B03E4E3F1E01192C8
:100B200081E0E636F807D9F783EB91E00E949C015B
:100B3000892B09F1C4E3D1E083EB91E00E949C0191
:100B4000181619064CF483EB91E00E947A01899300
:100B500081E0C636D80781F789E291E00E940B0355
:100B600084E391E00E940B03E4E3F1E0119281E061
:100B7000E636F807D9F764E670E080E090E00E947E
:100B8000D902D2CF86E191E0909351028093500236
:100B90008091B1019091B2018055924071F4E09141
:100BA0006302F091640290818091650280958923AF
:100BB00080831092B2011092B1010895F8940C94C0
:100BC0000F0697FB072E16F4009407D077FD09D087
:100BD0000E94F50507FC05D03EF4909581959F4F46
:100BE0000895709561957F4F0895AA1BBB1B51E135
:100BF00007C0AA1FBB1FA617B70710F0A61BB70B8D
:100C0000881F991F5A95A9F780959095BC01CD0131
:100C10000895EE0FFF1F0590F491E02D099410E068
:100C2000C2E6D0E004C0FE010E9409062196C33648
:080C3000D107C9F7F894FFCFCA
:100C380000000000CA013B016B0117029C017A0108
:100C48008E0100000000A6003B016801A50002011A
:100C58001A018D000D0A003100446174612072652B
:040C680061642100A2
:00000001FF
